:100000000C9434000C943E000C943E000C943E0082
:100010000C943E000C943E000C943E000C943E0068
:100020000C943E000C943E000C943E000C943E0058
:100030000C943E000C943E000C943E000C943E0048
:100040000C943E000C943E000C943E000C943E0038
:100050000C943E000C943E000C943E000C943E0028
:100060000C943E000C943E0011241FBECFEFD8E04C
:10007000DEBFCDBF0E9440000C9421010C94000013
:100080000E9469000E9481000E94A5000E94DF007A
:100090000E9471008130E1F780E00E948C000E9494
:1000A000AD000E94EC00F4CF20E030E040E050E0F2
:1000B000A0EABFE0FD013197F1F72F5F3F4F4F4FAF
:1000C0005F4F6217730784079507A0F7089585B9F6
:1000D0000895209A1AB88BB183608BB9589A599AAF
:1000E00008950E94690015B8489908C0499903C04D
:1000F00081E085B9089515B880E0089515B880E0CD
:100100000895ECE7F0E0808180648083EAE7F0E026
:10011000808187688083089580917C00887F8093A8
:100120007C0080917A00806480937A0080917A00CC
:1001300086FDFCCF80917A00806180937A002091C7
:10014000780030917900C901089583E88093800098
:100150008BE080938100219A0895893C910570F489
:100160008CEC90E0909389008093880068EC70E0BC
:1001700080E090E00E94540081E60895895C904000
:100180008C52914070F489E991E0909389008093BA
:10019000880068EC70E080E090E00E94540082E605
:1001A00008958CEC92E0909389008093880068EC2D
:1001B00070E080E090E00E94540083E60895109281
:1001C000C50087E68093C400789486E08093C200DF
:1001D00088ED8093C1000895813649F48091C00074
:1001E00085FFFCCF82E38093C60080E315C0823692
:1001F00049F48091C00085FFFCCF82E38093C60064
:1002000085E30AC0833671F48091C00085FFFCCF7E
:1002100082E38093C60089E38093C60083E48093E1
:10022000C6000895843661F48091C00085FFFCCF3C
:1002300083E38093C6008093C60083E48093C60066
:060240000895F894FFCFC1
:00000001FF
